{
  "_format": "hh-sol-artifact-1",
  "contractName": "AnonymousReportPlatform",
  "sourceName": "contracts/AnonymousReportPlatform.sol",
  "abi": [
    {
      "anonymous": false,
      "inputs": [
        {
          "indexed": false,
          "internalType": "uint256",
          "name": "id",
          "type": "uint256"
        },
        {
          "indexed": false,
          "internalType": "string",
          "name": "title",
          "type": "string"
        },
        {
          "indexed": false,
          "internalType": "string",
          "name": "category",
          "type": "string"
        },
        {
          "indexed": false,
          "internalType": "uint256",
          "name": "timestamp",
          "type": "uint256"
        }
      ],
      "name": "ReportSubmitted",
      "type": "event"
    },
    {
      "inputs": [],
      "name": "getAllCategories",
      "outputs": [
        {
          "internalType": "string[]",
          "name": "",
          "type": "string[]"
        }
      ],
      "stateMutability": "view",
      "type": "function"
    },
    {
      "inputs": [
        {
          "internalType": "string",
          "name": "_category",
          "type": "string"
        }
      ],
      "name": "getCategoryCount",
      "outputs": [
        {
          "internalType": "uint256",
          "name": "",
          "type": "uint256"
        }
      ],
      "stateMutability": "view",
      "type": "function"
    },
    {
      "inputs": [],
      "name": "getCategoryStatistics",
      "outputs": [
        {
          "internalType": "string[]",
          "name": "",
          "type": "string[]"
        },
        {
          "internalType": "uint256[]",
          "name": "",
          "type": "uint256[]"
        }
      ],
      "stateMutability": "view",
      "type": "function"
    },
    {
      "inputs": [
        {
          "internalType": "uint256",
          "name": "_id",
          "type": "uint256"
        }
      ],
      "name": "getReport",
      "outputs": [
        {
          "internalType": "uint256",
          "name": "id",
          "type": "uint256"
        },
        {
          "internalType": "string",
          "name": "title",
          "type": "string"
        },
        {
          "internalType": "string",
          "name": "content",
          "type": "string"
        },
        {
          "internalType": "string",
          "name": "category",
          "type": "string"
        },
        {
          "internalType": "uint256",
          "name": "timestamp",
          "type": "uint256"
        }
      ],
      "stateMutability": "view",
      "type": "function"
    },
    {
      "inputs": [],
      "name": "reportCount",
      "outputs": [
        {
          "internalType": "uint256",
          "name": "",
          "type": "uint256"
        }
      ],
      "stateMutability": "view",
      "type": "function"
    },
    {
      "inputs": [
        {
          "internalType": "uint256",
          "name": "",
          "type": "uint256"
        }
      ],
      "name": "reports",
      "outputs": [
        {
          "internalType": "uint256",
          "name": "id",
          "type": "uint256"
        },
        {
          "internalType": "string",
          "name": "title",
          "type": "string"
        },
        {
          "internalType": "string",
          "name": "content",
          "type": "string"
        },
        {
          "internalType": "string",
          "name": "category",
          "type": "string"
        },
        {
          "internalType": "uint256",
          "name": "timestamp",
          "type": "uint256"
        }
      ],
      "stateMutability": "view",
      "type": "function"
    },
    {
      "inputs": [
        {
          "internalType": "string",
          "name": "_title",
          "type": "string"
        },
        {
          "internalType": "string",
          "name": "_content",
          "type": "string"
        },
        {
          "internalType": "string",
          "name": "_category",
          "type": "string"
        }
      ],
      "name": "submitReport",
      "outputs": [],
      "stateMutability": "nonpayable",
      "type": "function"
    }
  ],
  "bytecode": "0x60808060405234610016576109a3908161001b8239f35b5f80fdfe6080604081815260049182361015610015575f80fd5b5f3560e01c908163185c6f8414610551575080634a101ef1146103e45780634e7f9b191461038a578063c942adf714610331578063d4f056d4146102d7578063dadd0a57146102a35763fb45a7c21461006c575f80fd5b3461029f57606036600319011261029f5767ffffffffffffffff823581811161029f5761009c9036908501610762565b90602493843582811161029f576100b69036908301610762565b9460443583811161029f576100ce9036908401610762565b925f546001810180911161028d57805f5586519160a08301908382109082111761027b5790610150866101468a9b61013c8b8d8b9860019f52878a5260209e8f808c01938452828c0195865260608c0197885260808c0199428b525f52525f2098518955516001890161088e565b516002870161088e565b516003850161088e565b5191015585518584519181818188019461016b81838861056a565b810160028152030190205415610219575b61019091885180938192885192839161056a565b810160028152030190209081549260018401809411610208575050917fe17be73e0582ca8f5efd4ed0329f1673dbe438665bb09d96e4565459630d658a95916101fd93556101f05f5494608084519788978852870152608086019061058b565b918483039085015261058b565b4260608301520390a1005b601190634e487b7160e01b5f52525ffd5b50600354680100000000000000008110156102695780600161023e92016003556107d0565b610258576101909161025186899361088e565b915061017c565b825f85634e487b7160e01b8252525ffd5b82604185634e487b7160e01b5f52525ffd5b83604186634e487b7160e01b5f52525ffd5b82601185634e487b7160e01b5f52525ffd5b5f80fd5b503461029f575f36600319011261029f576102d3906102c0610819565b90519182916020835260208301906105b0565b0390f35b503461029f57602036600319011261029f57813567ffffffffffffffff811161029f57602061030d819461031f93369101610762565b8184519382858094519384920161056a565b81016002815203019020549051908152f35b503461029f57602036600319011261029f5781355f5260016020526102d3815f2091825492610362600182016106c0565b9461036f600283016106c0565b9061037c600384016106c0565b92015492519586958661060c565b50903461029f57602036600319011261029f5780355f5260016020526102d3825f2092835492840154906103c0600186016106c0565b946103d960036103d2600284016106c0565b92016106c0565b91519586958661060c565b50903461029f575f36600319011261029f579060035491610404836107b8565b926104118351948561068a565b80845261041d816107b8565b9160209182860193601f19013685375f5b81811061048d57505050610440610819565b938161045585519686889788528701906105b0565b918583038287015251918281520192915f5b82811061047657505050500390f35b835185528695509381019392810192600101610467565b61049a81979596976107d0565b5084885180925f9080546104ad81610652565b916001918083169081156105385750600114610502575b50505060028152030190205485518210156104ef57600582901b86018501529395949360010161042e565b603284634e487b7160e01b5f525260245ffd5b5f908152858120929350915b8383106105225750505081015f80806104c4565b8054838801528a9587955090920191810161050e565b60ff1916865250505080151502820190505f80806104c4565b3461029f575f36600319011261029f576020905f548152f35b5f5b83811061057b5750505f910152565b818101518382015260200161056c565b906020916105a48151809281855285808601910161056a565b601f01601f1916010190565b90808251908181526020809101926020808460051b8301019501935f915b8483106105de5750505050505090565b90919293949584806105fc600193601f198682030187528a5161058b565b98019301930191949392906105ce565b9594939060809361063161064d9461063f938a5260a060208b015260a08a019061058b565b9088820360408a015261058b565b90868203606088015261058b565b930152565b90600182811c92168015610680575b602083101461066c57565b634e487b7160e01b5f52602260045260245ffd5b91607f1691610661565b90601f8019910116810190811067ffffffffffffffff8211176106ac57604052565b634e487b7160e01b5f52604160045260245ffd5b9060405191825f82546106d281610652565b908184526020946001916001811690815f146107405750600114610702575b5050506107009250038361068a565b565b5f90815285812095935091905b81831061072857505061070093508201015f80806106f1565b8554888401850152948501948794509183019161070f565b9250505061070094925060ff191682840152151560051b8201015f80806106f1565b81601f8201121561029f5780359067ffffffffffffffff82116106ac5760405192610797601f8401601f19166020018561068a565b8284526020838301011161029f57815f926020809301838601378301015290565b67ffffffffffffffff81116106ac5760051b60200190565b6003548110156108055760035f527fc2575a0e9e593c00f959f8c92f12db2869c3395a3b0502d05e2516446f71f85b01905f90565b634e487b7160e01b5f52603260045260245ffd5b60035490610826826107b8565b91610834604051938461068a565b80835260035f90815260207fc2575a0e9e593c00f959f8c92f12db2869c3395a3b0502d05e2516446f71f85b8186015b848410610872575050505050565b6001838192610880856106c0565b815201920193019290610864565b919091825167ffffffffffffffff81116106ac576108ac8254610652565b601f8111610951575b50602080601f83116001146108f05750819293945f926108e5575b50508160011b915f199060031b1c1916179055565b015190505f806108d0565b90601f19831695845f5260205f20925f905b88821061093957505083600195969710610921575b505050811b019055565b01515f1960f88460031b161c191690555f8080610917565b80600185968294968601518155019501930190610902565b825f5260205f20601f830160051c8101916020841061098c575b601f0160051c01905b81811061098157506108b5565b5f8155600101610974565b909150819061096b56fea164736f6c6343000818000a",
  "linkReferences": {},
  "deployedLinkReferences": {}
}